:020000040800F2
:10000000E81B00206D0300089B2C00081D0300085E
:10001000992C0008C51C0008112F000800000000E2
:100020000000000000000000000000007F03000846
:100030007B1D000800000000A70200089D2C00089E
:100040008703000887030008870300088703000868
:100050008703000887030008870300088703000858
:100060008703000887030008870300088703000848
:100070008703000887030008C91C0008D51C000876
:100080008703000887030008870300088703000828
:100090008703000887030008870300088703000818
:1000A0008703000887030008870300088703000808
:1000B00087030008870300088703000887030008F8
:1000C00087030008870300088703000887030008E8
:1000D00087030008D52E000887030008870300085F
:1000E00087030008870300088703000887030008C8
:1000F00087030008870300088703000887030008B8
:1001000087030008870300088703000887030008A7
:100110008703000887030008870300088703000897
:100120008703000887030008870300088703000887
:1001300000F002F800F090F80AA090E8000C824469
:100140008344AAF10107DA4501D100F085F8AFF246
:10015000090EBAE80F0013F0010F18BFFB1A43F0A5
:1001600001031847A4470000C4470000103A24BF09
:1001700078C878C1FAD8520724BF30C830C144BF0C
:1001800004680C607047000000230024002500264E
:10019000103A28BF78C1FBD8520728BF30C148BFEA
:1001A0000B6070476E2900F0FB81702900F03D83E1
:1001B000662904F07F82652904F07C82672904F0B7
:1001C0007982612904F0788203681B0A28BF41F014
:1001D0008001692900F0A881642900F0A5817529B2
:1001E00000F0A2816F2900F0CA82782900F009830B
:1001F000E92900F06582E42900F06282F52900F027
:100200005F82EF2900F0C782F82900F008830368B5
:10021000DB0928BF41F08001632901F00B807329BD
:1002200001F01080E32901F01B80F32901F0208008
:10023000002070471FB501F06DF804000020002178
:1002400004F022FA401C60600020002104F006FA4D
:10025000E0601FBD10B510BD01F02EF81146FFF78C
:10026000E9FF01F02AFD01F00BF903B4FFF7F2FFFB
:1002700003BC01F053F90000EFF3108072B6704731
:1002800080F310887047324A1368012B04D04FF076
:10029000010313602F4A10602F4A11602F484FF05E
:1002A000805101607047EFF3108272B628480168F0
:1002B00091B14FF0000101602648016829B1EFF3C8
:1002C000098121E9F00F0068016023490968096884
:1002D000B1E8F00F81F3098882F310884EF0040E24
:1002E00070471D4908601B494FF00000086018491D
:1002F0004FF0010008601A481A49D0F8002041EA7E
:100300000201016015484FF08051016016480068F5
:10031000006880F3088861B662B670471EF0040F6B
:100320000CBFEFF30880EFF3098020E9F00F40F8ED
:1003300004ED1EF0040F0CBF80F3088880F30988D9
:1003400000B503F0BFF85DF804EB4EF0040E704703
:1003500090000020880000208C00002004ED00E0C8
:1003600020ED00E00000FFFF08ED00E009488047B5
:1003700009480047FEE7FEE7FEE7FEE7FEE7FEE787
:10038000FEE7FEE7FEE7FEE704480549054A064B9F
:1003900070470000B12C000831010008E81500206A
:1003A000E81B0020E8170020E81700201CB50C46C9
:1003B000064B7B4469460090204600F00AF904464B
:1003C0000020694600F018F920461CBD43020000D9
:1003D00010B5431C02E010F8011B71B18107FAD17E
:1003E0004FF0013202C88C1A8C4314EAC211F9D0C2
:1003F000C01A0A0603D0C01E10BDC01A10BD0A04E0
:1004000001D0801E10BD0902FCD0401E10BD4FF06F
:10041000000200B5134694469646203922BFA0E854
:100420000C50A0E80C50B1F12001BFF4F7AF090760
:1004300028BFA0E80C5048BF0CC05DF804EB890051
:1004400028BF40F8042B08BF704748BF20F8022B94
:1004500011F0804F18BF00F8012B704770477047AC
:10046000704770B5044685690068C10601D530261D
:1004700000E02026C00707D070BDD4E90121304636
:100480009047206A401C20626D1EF6D570BD70B585
:10049000044685690078C00707D170BDD4E9012101
:1004A00020209047206A401C20626D1EF6D570BD4A
:1004B00009684A0501D540B27047C905FCD500B2AC
:1004C000704709684A0501D5C0B27047C905FCD517
:1004D00080B2704770B50C460546012A05D02878D1
:1004E000800600D5EA69002302E0012305E05B1CD9
:1004F000934202D2E05C0028F9D1A869E618C01A3C
:10050000A861286A184428622846FFF7AAFF04E079
:10051000D5E9012114F8010B9047B442F8D32846DD
:10052000FFF7B5FF70BD00002DE9F041064600243D
:1005300010687529314616A510D0FFF7B9FF0028BD
:1005400002DA404213A507E031688A0701D512A5F7
:1005500002E0490704D511A5012401E0FFF7B1FF2E
:1005600000210A2206F1240709E0B0FBF2FCB0FBEF
:10057000F2F302FB1C00303078541846491C002866
:10058000F3D123462A463046BDE8F04100F061BA77
:10059000000000002D0000002B00000020000000E3
:1005A00011680268006A530501D508700AE0D30596
:1005B00001D5088006E0130603D5C217C1E9000281
:1005C00000E008600120704701694A1C0261087858
:1005D000704700B58FB0CDE9013100210591054983
:1005E0007944CDE903101146684600F029F90FB0AF
:1005F00000BD0000E5FFFFFF0A6802F8010B0A607A
:10060000704700002DE9FF5F15468A460446DFF873
:10061000AC80F8440027D8E900103E46CDE9001030
:1006200010E03AF816106A4602A800F025FE411CB8
:1006300007D02178890603D5E269391891420DD88F
:100640000744761C2078800602D5E069B84205DDB3
:10065000AE42E6DB3AF816000028E2D1A069C01BE2
:10066000A0612046FFF7FDFED8E90010CDE900109B
:10067000002017E03AF818106A4602A800F0FCFDC6
:10068000B0F1FF3F81460BD000250DF1080B05E0CE
:10069000D4E901211BF8050090476D1C4D45F7D3A7
:1006A00008F10100B0428046E4DB206A3844206251
:1006B0002046FFF7ECFEBDE8FF9F0000E24100008E
:1006C0002DE9F0418046D21D22F007020025D2E933
:1006D0000002F52915A614D0011E72F1000106DAF8
:1006E0000023D0EB030063EB020211A608E0D8F868
:1006F00000108B0701D50FA602E0490701D50EA611
:1007000001251146002408F1240704E000F05CF9FB
:1007100030323A55641C50EA0102F7D12B4632467A
:1007200021464046BDE8F04100F093B900000000CA
:100730002D0000002B0000002000000030B400213C
:1007400000F1240408E002F00705D208303542EA3F
:100750004372DB086554491C52EA0305F3D104686F
:10076000002310A2250707D5A40600D421B1C4692F
:1007700001230DA2641EC46130BC00F06AB910B53B
:10078000044621461068FFF79CFE02462046BDE85D
:1007900010400023D2E7D21D22F00701D1E9002347
:1007A000CCE700000000000030000000F0B40D466F
:1007B0000188090502D5214C7C4402E01F4C7C4491
:1007C0000E34002100F1240608E002F00F071209A0
:1007D000E75D42EA03721B097754491C52EA03079A
:1007E000F3D102780023120704D5702D06D009B189
:1007F000022311342246F0BC00F02BB9012310343F
:10080000F8E770B504460D4621461068FFF759FE1B
:10081000024629462046BDE870400023C6E7D21DA7
:1008200022F00703D3E90023C0E70368126843F00E
:10083000200303600823C3610023B7E7444000009E
:100840002DE9F05F894604464FF0000ADFF874B1E5
:10085000FB44C0F820A02046E1688847002874D0F7
:10086000252806D0D4E901219047206A401C206247
:10087000F1E700265F462046E168884720280546C4
:1008800007DB312D05D2781910F8200C08B106438A
:10089000F1E7B00701D526F00406C4F81CA0002734
:1008A000C4F818A02A2D09D0284602F085FB38B3D9
:1008B00004EB8708303DC8F8185019E059F8041BBC
:1008C000204604EB87029161E1688847012F0546C5
:1008D00018D1E069002820DA26F020061DE0D8F8BB
:1008E000180000EB800005EB40003038C8F8180015
:1008F0002046E1688847054602F05EFB0028EED1FD
:10090000012F0AD02E2D08D12046E16888477F1C90
:100910000546022F46F02006C4DBA069002803DA52
:10092000404246F00106A061F00701D026F0100613
:100930006C2D0BD0682D09D04C2D39D06A2D35D0B7
:10094000742D35D07A2D33D016E038E0E1682F468B
:1009500020468847B842054609D16C2F26D04FF46F
:100960008060E168064320468847054604E06C2F16
:100970001AD04FF4807006430DB3A5F14100192839
:1009800002D8203546F400664A46294620462660AD
:100990004E46FFF707FC80B101280BD0F61D26F06C
:1009A000070000F1080956E74020E4E78020D8E777
:1009B0000020D6E706F104094DE7284652E7206AF1
:1009C000BDE8F09FD43F000030B5B0F10A024FEA15
:1009D000900E71F100034EEA817EB0EB0E0061EBE8
:1009E00091014FEA101E4EEA017E10EB0E0041EB22
:1009F00011114FEA102E4EEA016E10EB0E0041EB82
:100A000011214FEA104E4EEA014E10EB0E0041EB61
:100A10001141401841F100014FEAD00040EA417015
:100A20004FEAD10110EB80054FEA810444EA90744B
:100A300044EB01046D1944EB0404521BA3414FF035
:100A4000000348BF0A3200D530BD401C41F100010F
:100A500030BD2DE9F0470D4699469246044600F117
:100A600024080168880604D5E06921F0100121609E
:100A700000E00120A84201DD471B00E00027A1693A
:100A80007A1902EB0900081AA0612078C00602D486
:100A90002046FFF7E6FC002608E0D4E901211AF819
:100AA00006009047206A401C761C20624E45F4DB0D
:100AB0002078C0060AD52046FFF7D3FC06E0D4E92B
:100AC000012130209047206A401C2062381EA7F187
:100AD0000107F4DC07E0D4E9012118F8050090478C
:100AE000206A401C2062281EA5F10105F3DC204687
:100AF000FFF7CDFC2078000602D50220BDE8F08784
:100B00000120FBE770472DE9FF4F0C461E464FF0D2
:100B1000FF378BB0D2E90001DDF860800A908A4689
:100B2000C1F30A5505B93D46002108464FF00000C3
:100B3000BAF1000F00F4400005DA00EB80004FF43A
:100B4000400101EA50004FEA9059B9F1010F00DD70
:100B5000B9460A9850EA4A000ED044F61050A5F261
:100B6000FF3545432F14B8F1000F1ED07542291EE2
:100B70001EDDC9F100021CE0B8F1010F4FF00000CA
:100B800001D0302103E0F24305E02154401CB04283
:100B9000FBDB30460022002121540B99C1F808806C
:100BA000C1E900200FB0BDE8F08FBD1B6D1CDEE772
:100BB0004A4600DA694206A800F0F0FB06AB93E86B
:100BC000070003AB83E8070050460A9900F0ADFC2C
:100BD0008DE80700A0F500501F3800900398002D05
:100BE0000ADD42F21F014A460844002303A903908C
:100BF000684600F016FF09E0A0F500504A461F388D
:100C0000002303A90390684600F020FF8DE8070049
:100C10000004000C03D04FF0FF30410800E0104604
:100C2000B8F1000F03D00022009215461EE0751E99
:100C300005D4FFF7C9FE303262556D1EF9D5B346B3
:100C40000122084302D000227F1C04E020783028D3
:100C500001D100227F1E002A099784D01DE0112DAA
:100C600007DAFFF7B1FE303262556D1C50EA01021F
:100C7000F5D1084302D00098C8B10EE00021681EEB
:100C800005E0235C625C63542254401E491C81428F
:100C9000F7DBAB46A81B401E0990002004F80B00B0
:100CA0000B98099AC0F80880C0E9002B7AE7112652
:100CB0004FF0000857E72DE9F04F88460446D21D53
:100CC00022F0070191B0D1E90001CDE90A0102F05B
:100CD00020F902460B98C00F01D02D2007E02068B4
:100CE000810701D52B2002E0202101EAC000032A60
:100CF000099001D0072A05DB03464146204600F053
:100D00000DFB0BE12078800601D5E06900E00620AC
:100D1000B8F1650F814606D0B8F1660F18D0B8F16A
:100D2000670F70D131E00020B9F1110F009001DBA5
:100D3000112301E009F101030AAA01A90CA8FFF798
:100D4000E2FEDDE90C70002609F10105834647E06B
:100D500001204B4600904FF000470AAA01A90CA8B9
:100D6000FFF7D1FEDDE90DB00C995D46002610B904
:100D700009F101000D18B9EB050003D4C0F1FF36ED
:100D800009F10105A5EB09002BE0B9F1010F01DA2A
:100D90004FF001090020B9F1110F0090484601DD24
:100DA000112300E003460AAA01A90CA8FFF7ABFE35
:100DB000DDE90C704D4600268346207800070AD4F2
:100DC000AB4500DA5D4601A8012D04DD411911F89B
:100DD000011C302907D04F4502DA17F1040F04DA5D
:100DE000012082460FE06D1EEEE7002F02DCED1BB6
:100DF0003E4403E0781CA84200DD7D1CB81B00F1D6
:100E0000010A4FF000472078000703D4AA4501DB10
:100E10004FF0FF3A0021B7F1004F0DF143088DF874
:100E2000431024D002202B23002F01DA7F422D23F0
:100E30000A21021EA0F1010000DC5FB197FBF1FC6A
:100E400097FBF1F201FB1C7C17460CF1300C08F803
:100E500001CDEEE7A8F1010003702188090501D555
:100E6000452100E06521A0F1010800F8011C099866
:100E70000FA9A1EB0807FF1D00B10120411901EBEB
:100E8000EA70A1693844081A401EA0612078C006A3
:100E900002D42046FFF7E5FA099828B1D4E90121E8
:100EA0009047206A401C20622078C00622D5204648
:100EB000FFF7D7FA1EE0002E04DBB34502DD01A8E0
:100EC000805D00E03020D4E901219047206A401C79
:100ED0002062761CAAF101005FEA000A0AD100F044
:100EE00019FAC0680168405CD4E901219047206A82
:100EF000401C2062281EA5F10105DCDC07E0D4E9D6
:100F0000012118F8010B9047206A401C2062381E0E
:100F1000A7F10107F3DC2046FFF7B9FA032011B06F
:100F200041E600002DE9F04F04460D46D21D22F0A7
:100F3000070089B0D0E900974846394601F0E9FF3B
:100F40000246F80F01D02D2307E02068810701D564
:100F50002B2302E0202101EAC0038DF820300BB1E1
:100F6000012000E00020032A824601D0072A04DB8A
:100F70002946204600F0D2F93FE12078800601D4CE
:100F80000D2500E0E569C7F30A560D2D49DA002169
:100F90004FEA175B08464FF00000002F00F44000B6
:100FA00007DA00EB80004FF4400100EBD07001EA5B
:100FB00060008115012901DD4FF0FF3100224FEA69
:100FC000850CBCF1180F06D31346ACF118004FF096
:100FD0008052C24003E04FF4801323FA0CF30CF16B
:100FE0000C0CBCF1200F04D3ACF1200C09FA0CF06E
:100FF00001E007FA0CF000294FF0004801DD18B9B4
:101000000FE00ED140450CD319EB02095F4121B925
:10101000404502D19F4329EA0209BBEB175F00D08C
:10102000761C2088000502D57B48784402E07A4887
:101030007844193808AA302302F80A30037C0AF1F0
:101040000101002E0AF1020A53546A4602DC4FF0F5
:10105000300101E04FF031014FF001088DF8001030
:1010600002D0A6F2FF3603E059EA470100D06B4EEA
:10107000002D02DC2178090704D54FF002082E214B
:101080008DF80110C44600210BE0C7F303433F0174
:10109000C35C491C6D1E02F80830052908F10108DF
:1010A00001DA002DF1DC00210CE000EB1973491C82
:1010B0001B786D1E082902F808304FEA091908F15B
:1010C000010801DA002DF0DC21688B0602D516E05C
:1010D000A8F10108E04505DD02EB080313F8013C27
:1010E000302BF5D0B8F1000F09DD02EB080313F83F
:1010F000013C2E2B03D1090701D4A8F10108002DD2
:1011000005DD3E2102F808106D1E08F10108407C43
:10111000002E02F8080008F1010804DA2D207642BA
:1011200002F8080002E02B2002F808000A214FF420
:101130007A70864208F101080BDB96FBF0F330333E
:1011400002F8083096FBF0F308F1010800FB136683
:1011500001E0642E0CDB642096FBF0F3303302F8E0
:10116000083096FBF0F308F1010800FB136601E07C
:101170000A2E06DB96FBF1F0303002F8080008F189
:10118000010896FBF1F001FB1060303002F8080016
:10119000A16908F1010808EB050202EB0A00081A30
:1011A000A0612078C00602D42046FFF75AF9216AD0
:1011B00008AE01EB0A00206204E0D4E9012116F830
:1011C000010B9047BAF1010AF7D22078C00602D588
:1011D0002046FFF746F96E4609E016F8010B3E2857
:1011E0000FD0D4E901219047206A401C2062B8F159
:1011F0000108F2D22046FFF74AF909B00320BDE802
:10120000F08F206A2844206203E0D4E901213020D5
:1012100090476D1EEBD3F8E71E38000002FCFFFF7D
:1012200010B5436913B1AFF3008001E0FFF752F945
:10123000012010BD127800F124010A7000224A70CA
:101240000122EDE711684FF0FF32E9E710B543697D
:1012500013B1AFF3008001E0FFF7D4F9012010BD16
:10126000128800F1240182840022C2840122EDE769
:1012700011684FF0FF32E9E770B516460C46054697
:1012800000F040F8036893F80101012806D0FF2C14
:101290000FD8185D68B101202C7070BDD3F807011C
:1012A0003246214603F2071303442846BDE8704046
:1012B00018474FF0FF3070BD754600F0EBF8AE46B2
:1012C00005006946534620F00700854618B020B552
:1012D000FFF75AF8BDE820404FF000064FF0000736
:1012E0004FF000084FF0000B21F00701AC46ACE8CE
:1012F000C009ACE8C009ACE8C009ACE8C0098D463B
:101300007047000010B500F005F8001D10BD00BFCB
:101310007933000000487047A41500202DE9F04102
:101320001F46044603260168072A01F4006004DB17
:1013300008B116A505E016A503E008B115A500E063
:1013400015A521F010002060A069C01EA0610FB19A
:10135000401EA0612046FFF784F84FB1D4E9012177
:1013600038469047206A401C2062C01C206206E07C
:10137000206AFAE7D4E9012115F8010B9047761E9F
:10138000F8D22046FFF783F8BDE8F0814E414E00C9
:101390006E616E00494E4600696E66002DE9F047A9
:1013A000814616468AB0354878440DC88DE80D0050
:1013B00032487844801C03AC0DC884E80D0041F627
:1013C0009B300844372190FBF1F290FBF1F5A5F139
:1013D000800501FB12041B3C02D56442012000E0A1
:1013E0000020DFF898A080460027FA44AAF1BE0A40
:1013F0000EE0E0070AD03246684607EB47010123BA
:101400000AEB810100F022FB8DE8070064107F1CCD
:10141000002CEED1194F7F44AE3F19E0E80715D0FC
:1014200007EB04100DF1180A90E80E008AE80E0090
:10143000C068F04201D1981908903246012306A9EC
:1014400003A800F003FB03AB83E807006D10641CE6
:10145000002DE3D14FF0010332466946B8F1000F89
:1014600003A802D000F0DDFA01E000F0EFFAC9E9CC
:101470000001C9F808200AB0BDE8F0873035000047
:1014800010B50446AFF300802046BDE81040FEF7DB
:10149000ECBE000000487047841500204FF0013C6E
:1014A00050F8042B51F8043B9A4221D1A2EB0C03D3
:1014B000934313EACC1317D150F8042B51F8043B93
:1014C0009A4215D1A2EB0C03934313EACC130BD130
:1014D00050F8042B51F8043B9A4209D1A2EB0C03BB
:1014E000934313EACC13DBD04FF00000704700BFEA
:1014F000D01A01BAB1FA81F101F0180122FA01F013
:10150000CB40C1F12001DBB2C0B2C01A2CFA01F30A
:10151000D11A914311EAC311E6D17047014918204D
:10152000ABBEFEE72600020070475FEA400C08BF32
:1015300091F0000F4FEA8C234FEAC12243EA515148
:101540004FEA1C5018BF00F5F0404FEA300018BFBA
:1015500041F000415FEA6C5C00F02980BCF1FF3F84
:1015600008BF40F080407047130C06BF12044FF0D4
:10157000100C4FF0000C130E04BF12020CF1080CFB
:10158000130F04BF12010CF1040C930F04BF92005F
:101590000CF1020CD30F04BF52000CF1010C1146E8
:1015A0004FF00002A0F11F00A0EB0C00704711F0FB
:1015B000004F08BF704731F000413FF4D5AF0B0C2E
:1015C00006BF09044FF0100C4FF0000C0B0E04BFC7
:1015D00009020CF1080C0B0F04BF09010CF1040CFB
:1015E0008B0F04BF89000CF1020CCB0F04BF490024
:1015F0000CF1010CCCF12003A0EB0C0022FA03F358
:1016000002FA0CF241EA030100F10100704720F0F8
:101610007F4C80EA030023F07F47ACEB070303F520
:101620007C5300F0004003F1FF032DE980494FEAAD
:10163000154B09B44FEA144325EA0B4E24EA03483C
:101640000FF2042606EB132749083E785FEA3202C0
:1016500003FB0667C7F5000707FB06F64FEA54379A
:101660004FEAD64606F1020607FB066CCCF1005C99
:101670004FEA1C472CEA074C07FB06F40CFB06F567
:1016800004EB15464FEA961634BF00204FF0004099
:101690004FEAD13706FB07FC4FEA1C4C0CFB0BF75B
:1016A000D21B03FB0CF761EB07010CFB0EF7B0EB51
:1016B000074072EB17420CFB08F734BFA2EB07425E
:1016C000B2EB074261EB17414FEA0C444FEA910736
:1016D00006FB07FC4FEA1C4C0CFB0BF7B0EBC740BA
:1016E00072EB573203FB0CF734BFA2EBC742B2EBED
:1016F000C74261EB57310CFB0EF7B0EBC70072EB42
:1017000057720CFB08F734BFA2EBC702B2EBC7025B
:1017100061EB5771039F4FEA816141EA921104EB3B
:10172000CC044FEAD1374FEA826206FB07FC42EA5B
:1017300090124FEA80604FEA1C4C0CFB0BF7D21B57
:1017400003FB0CF761EB07010CFB0EF7B0EB074056
:1017500072EB17420CFB08F734BFA2EB0742B2EB67
:10176000074261EB17414FEA8C554FEA910704EBB2
:101770009C2406FB07FC4FEA1C4C0CFB0BF7B0EB60
:10178000C74072EB573203FB0CF734BFA2EBC742E2
:10179000B2EBC74261EB57310CFB0EF7B0EBC70061
:1017A00072EB57720CFB08F734BFA2EBC702B2EB27
:1017B000C70261EB577115EB4C254FEA816141EA95
:1017C00092114FEA82624FEAD13742EA901206FB49
:1017D00007FC44F100044FEA80604FEA1C4C0CFB0C
:1017E0000BF7D21B03FB0CF761EB07010CFB0EF7A9
:1017F000B0EB074072EB17420CFB08F734BFA2EBCB
:101800000742B2EB074261EB174115EB1C154FEA9B
:10181000813141EA92414FEA823242EA90424FEAF4
:1018200080304FEA0C7644F1000448EA03434EEA64
:101830000B484FF0000EB2EB080C71EB030724BF0E
:10184000624639464EEB0E0E4FF0000B0018524127
:1018500049414BEB0B0BB2EB080C71EB03077BF12F
:10186000000B24BF624639464EEB0E0E4FF0000BC4
:101870000018524149414BEB0B0BB2EB080C71EBDA
:1018800003077BF1000B24BF624639464EEB0E0E78
:1018900051EA020718BF46F0010616EB0E7655F125
:1018A000000254F1000103D5BDE88901BDE80088BC
:1018B000BDE88901BDE80048B619524141EB01017C
:1018C000A3F10103704780807F7E7D7C7B7A7978ED
:1018D000777676757473727171706F6E6E6D6C6CF5
:1018E0006B6A6A6968686766666564646363626197
:1018F0006160605F5F5E5E5D5D5C5C5B5B5A5A5918
:101900005958585757565655555554545353525283
:101910005251515050504F4F4F4E4E4D4D4D4C4CDB
:101920004C4B4B4B4A4A4A49494948484847474724
:101930004746464645454544444444434343434261
:10194000424242414141002B9C4630D477002BD08B
:101950001CB54FEA370703B44FF010004FF01001E9
:10196000BAF1000F06D0BCF1000FDCBF40F0080058
:1019700040F008014FF000000FBCBDE810400BF133
:10198000010BBBF1010F08BF5FEA170722BF12F17D
:10199000010211F101014FF0004143F1000300F099
:1019A000004043EA00007047F9D35708D0E746EA01
:1019B000064613F1400F4FEA16461FDD13F1200FC4
:1019C000DFBF16430A46002120335B42BED0C3F17D
:1019D000200746EA064602FA07F74FEA164646EAA5
:1019E0000706C3F1200722FA03F201FA07F721FAEA
:1019F00003F14FF0000342EA0702A7E746EA0206B6
:101A000046EA06464FEA164646EA0106BCBF46EAE3
:101A10000646360C4FF000034FF000024FF0000175
:101A200094E72DE9804C9A46934670B491E83800CB
:101A300007C831EA400C48BF34EA430C03D5FFF72E
:101A4000E6FDFFF780FFF0BCBDE8008C2DE9804C7F
:101A50009A46934670B491E8380007C810F0804F5A
:101A600008BF13F0804F03D100F005F8FFF76BFFBC
:101A7000F0BCBDE8008C20F07F4780EA030023F033
:101A80007F4C07EB0C03A3F57C5300F00040A3F15F
:101A9000FE0392F0000F00F0B38095F0000F00F00D
:101AA00077802DE901494FEA11404FEA144621EAB7
:101AB000004800FB06FC24EA064708FB06F607FB85
:101AC00008F800FB07F718EB06484CEB164C4FEAFA
:101AD000124B18EB07484FEA15464CEB174022EA29
:101AE0000B4E0BFB06FC25EA06470EFB06F607FB32
:101AF0000EFE0BFB07F71EEB064E4CEB164C4FF0A1
:101B000000061EEB074E4CEB174B18EB0B0840F191
:101B1000000018EB0E0B58EB000840F100008F1A84
:101B20004FF000013CBFC943661B14BFB5EB040C6A
:101B300000213CBFC943F61B4FEA17444EEA8E0E04
:101B400027EA04454FEA1C4704FB07622CEA074CCE
:101B500005FB07F70CFB05F604FB0CFC16EB074630
:101B600042EB174216EB0C4642EB1C421BEB0606FF
:101B700058EB0202414146EA9E0601D5BDE80189C3
:101B8000B619524141EB0101A3F10103BDE80189FE
:101B90004FEA14454FEA114724EA054621EA074C6B
:101BA00005FB07F406FB07F70CFB06F105FB0CFC35
:101BB00011EB074144EB17444FEA124711EB0C417C
:101BC00044EB1C4422EA074C05FB07F206FB07F72F
:101BD0000CFB06F605FB0CFC16EB074642EB174226
:101BE00016EB0C4642EB1C456A1854F1000148BF45
:101BF0007047B619524141EB0101A3F1010370474F
:101C000095F0000F37D04FEA11424FEA144721EA0E
:101C1000024624EA074C02FB07F106FB07F70CFB20
:101C200006F402FB0CFC14EB074441EB17414FEAAE
:101C3000154714EB0C4441EB1C4125EA074C02FB11
:101C400007F506FB07F70CFB06F602FB0CFC16EB90
:101C5000074645EB174516EB0C4645EB1C4212199F
:101C600051F1000148BF7047B619524141EB0101E3
:101C7000A3F1010370474FEA14454FEA114724EAE4
:101C8000054621EA074C05FB07F106FB07F70CFBAD
:101C900006F24FF0000605FB0CFC12EB074241EB8D
:101CA000174112EB0C4251EB1C4148BF7047921890
:101CB00041EB0101A3F10103704710B502F078FC7C
:101CC000002010BDFEE70000014800F057B80000FA
:101CD000281200202DE9F04101F00CFD184E194C9E
:101CE000184D3168184F803CA94201D9386800E08E
:101CF0002068DFF8588010F4802F09D04FF480203E
:101D0000A94202D9C8F8000000E0606002F084FC3B
:101D10003168A94201D9386800E0206810F4003F1A
:101D200009D04FF40030A94202D9C8F8000000E001
:101D3000606002F071FCBDE8F04101F0E9BC000018
:101D4000E41100208000024000040240040402402C
:101D500030B590F840500124AC40C56B6C6004680D
:101D600063604368102B036803D099600068C26009
:101D700030BD9A600068C16030BD70472DE9F05FEA
:101D8000C16B0B6801680A68046C4FF0040808FA1C
:101D900004F8844D844E854FDFF814C2DFF81492A6
:101DA000DFF814A2DFF814B2DFF814E218EA030F28
:101DB00065D05FEA427862D50A68920603D40A6861
:101DC00022F004020A60DFF8F0814FF480620168BB
:101DD00008F1140813011402414524D9A9420DD079
:101DE000B1420FD0B9421AD0614515D0494515D03E
:101DF000514501D1120312E0594501D104220EE0F0
:101E0000714501D140220AE06D4D1435A94206D03A
:101E10006B4A2832914201D11A4600E022466749B6
:101E2000091F0A6029E0A94213D0B14215D0B94276
:101E300020D061451BD049451BD0514502D14FF4FC
:101E4000800217E0414502D14FF0806212E059450F
:101E500001D104220EE0714501D140220AE0584D23
:101E60001435A94206D0564A2832914201D11A4669
:101E700000E022464B4908394A60C16A71E04FF0E0
:101E8000020808FA04F818EA030F70D05FEA8278B3
:101E90006DD50A68920606D40A6822F00A020A6022
:101EA000012180F82110DFF810814FF400720168E1
:101EB00008F1140813011402414524D9A9420DD098
:101EC000B1420FD0B9421AD0614515D0494515D05D
:101ED000514501D1120312E0594501D102220EE011
:101EE000714501D120220AE0354D1435A94206D0B2
:101EF000334A2832914201D11A4600E022462F4946
:101F0000091F0A6029E0A94213D0B14215D0B94295
:101F100020D061451BD049451BD0514502D14FF41B
:101F2000001217E0414502D14FF0007212E059450E
:101F300001D102220EE0714501D120220AE0204D9C
:101F40001435A94206D01E4A2832914201D11A46C0
:101F500000E02246134908394A60002180F8201029
:101F6000816A00291CD0BDE8F05F0847FFE708251B
:101F7000A5401D4214D0120712D50A6822F00E02A5
:101F80000A6090F84020C36B012101FA02F25A6006
:101F9000816380F82110002180F82010016BE0E7B8
:101FA000BDE8F09F080002401C00024030000240E3
:101FB00044000240580002406C0002400804024005
:101FC0001C04024030B560B11A4B016814229942DA
:101FD00009D2194B0B44B3FBF2F292000264174A88
:101FE0000AE0012030BD134B5B420B44B3FBF2F21D
:101FF000920002640F4A083AC263022280F821204C
:102000000A6843F6F0739A43F0E901342343D0E9B8
:1020100002452C43234304692343446923438469D1
:10202000234313430B600021416301224277017770
:10203000084630BD08040240F8FFFDBF0000024022
:1020400070B5044690F82000002501280CD001202E
:1020500084F8200094F821600020012E06D084F836
:1020600020000225284670BD022070BD022684F89B
:102070002160A0632068066826F0010606602046FD
:10208000FFF766FEE06A00282068016802D041F090
:102090000E0106E021F0040101602068016841F0B2
:1020A0000A0101602068016841F001010160D9E77F
:1020B0002DE9F84FDFF8C091002409F1040A0AF174
:1020C000040B23464FF00F080BF1040ECCE0012760
:1020D000A7403A40BA4272D1DFF8A0C14D68A5EBE3
:1020E0000C0665452BD00DDC032D34D005DC35B353
:1020F000012D19D0022D2FD11BE0112D16D0122D3C
:102100002AD119E0B6F5881F19D006DCB6F5803F54
:1021100015D0B6F5801F1FD111E0B6F5001F0ED007
:10212000B6F5041F18D10AE0CB6815E0CB681B1D7B
:1021300012E0CB6808330FE0CB680C330CE08B68FF
:102140002BB1012B4FF0080303D0476104E00423B7
:1021500002E0076100E00023FF2A01D8064601E003
:1021600000F104064FEA840501D9A5F1200537687E
:1021700008FA05FC27EA0C0703FA05F547EA050704
:1021800037604D68ED006ED53D4DAE6946F00106F5
:10219000AE61AD6924F0030605F001050095394DE7
:1021A0007719BE68A5072D0F08FA05FC26EA0C066C
:1021B000DFF8D4C0604503D14FF0000C25E052E0B9
:1021C000DFF8C8C0604502D14FF0010C1DE0DFF818
:1021D000C0C0604502D14FF0020C16E0DFF8B4C079
:1021E000604502D14FF0030C0FE0DFF8ACC0604552
:1021F00002D14FF0040C08E0DFF8A0C0604502D126
:102200004FF0050C01E04FF0060C0CFA05FC4CEA0F
:10221000060CC7F808C04D68D9F80060ED034D46BC
:1022200001D5164300E096432E604D68DAF8006051
:10223000AD03554601D5164300E096432E604D6828
:10224000DBF80060ED025D4601D5164300E09643E1
:102250002E604D68DEF80060AD02754601D516436C
:1022600000E096432E60641C0A6832FA04F57FF49D
:102270002EAFBDE8F88F00000004014000001110EF
:10228000001002400000014000080140000C014025
:10229000001001400014014000180140001C0140E2
:1022A0000AB1016170470904FBE70000014880683A
:1022B0007047000094000020074810B5016841F005
:1022C00010010160032000F04BF80F2000F006F829
:1022D00000F024F8002010BD0020024070B50D4D24
:1022E00004464FF47A712878B1FBF0F00A49096886
:1022F000B1FBF0F000F0C4FA48B9102C07D200226C
:102300002146501E00F00CF800206C6070BD0120CA
:1023100070BD000094000020A00000207047000065
:10232000F0B40E4B1B68C3F30223C3F10704042C63
:1023300000D904241D1D072D01D2002300E0DB1E5F
:10234000012606FA04F56D1E0D409D409E40761E46
:10235000164045EA0601F0BC00F0FCBD0CED00E0C3
:10236000064A00F0070110684FF6FF03184040EAE4
:102370000120034908431060704700000CED00E0A5
:102380000000FA052DE9F0470D46040067D0DFF89C
:102390001881D8F8000000F00700A8420CD2D8F845
:1023A000001021F007012943C8F80010D8F80000F8
:1023B00000F00700A84252D120683C4E810712D598
:1023C000400703D5706840F4E06070602078000733
:1023D00003D5706840F4605070607068A16820F0A8
:1023E000F000084370602078C00727D0606801289B
:1023F00010D03168022810D0890700292FDA7168BF
:1024000021F0030101437160FFF750FF074641F2DD
:1024100088390CE031688903EFE78901EDE7FFF7C0
:1024200045FFC11B494502D90320BDE8F08770680C
:10243000616800F00C00B0EB810FF0D1D8F800100B
:10244000404601F00701A9420BD9016821F00701BC
:1024500029430160006800F00700A84201D0012074
:10246000E3E72078400705D57068E16820F4E06074
:10247000084370602078000706D57068216920F451
:10248000605040EAC100706000F038F87168084A96
:10249000C1F30311515CC840064908600648006852
:1024A000FFF71CFF0020C0E70020024000100240A0
:1024B000DE470008A00000209800002004480549DD
:1024C00000684968044AC1F30221515CC840704762
:1024D000A000002000100240EE4700080448054913
:1024E00000684968044AC1F3C221515CC840704782
:1024F000A000002000100240EE47000812A085B0A6
:102500000FC88DE80F0014A0144B006804905968A0
:10251000134801F00C02042A10D0082A0ED1C1F38E
:102520008342C9031DF802000AD5596804AAC1F301
:102530004041515C0A4A5043B0FBF1F005B070478E
:1025400008494843FAE700000203040506070809A2
:102550000A0B0C0D0E0F10100102000000100240BB
:1025600000127A0000093D002DE9F84F04006FD0F9
:102570002078BE4DC00747D06868C0F381000128AD
:1025800007D06868C0F38100022809D16868C003D9
:1025900006D52868800337D560680028E7D033E087
:1025A0006068B0F5803F0BD010B1B0F5A02F11D00E
:1025B000286820F480302860286820F4802002E019
:1025C000286840F480302860606888B1FFF76EFEAC
:1025D000064609E0286840F480202860F0E7FFF70D
:1025E00065FE801B642873D828688003F7D50BE04C
:1025F000FFF75CFE064604E0FFF758FE801B6428E8
:10260000F1D828688003F7D42078DFF86482800747
:102610004FF0010A4FF0000939D5686810F00C0F2F
:1026200007D06868C0F38100022809D16868C00338
:1026300006D42868800714D52069012808D110E045
:102640002069B0B1C8F800A0FFF730FE064605E0EB
:1026500007E1FFF72BFE801B0228C4D828688007FB
:10266000F7D52868616920F0F80040EAC1002860C9
:102670000DE0C8F80090FFF719FE064604E0FFF7EA
:1026800015FE801B022823D828688007F7D42078FD
:1026900000072CD57748A169D9B1C0F800A0FFF791
:1026A00005FE064604E0FFF701FE801B02280FD856
:1026B000686A8007F7D570484FF4FA510068B0FB9C
:1026C000F1F0009000BF0098411E0091FAD20EE098
:1026D0007CE0C0F80090FFF7E9FD064604E0FFF754
:1026E000E5FD801B022871D8686A8007F7D420783E
:1026F00040075BD5E8690027C00008D4E86940F0CE
:102700008050E861E869012700F0805000905B4844
:102710000168C90511D40168834641F480710160E4
:10272000FFF7C4FD064604E0FFF7C0FD801B6428E8
:102730004CD8DBF80000C005F6D5E06801280AD0C7
:1027400008B1052813D0286A20F001002862286A01
:1027500020F0040002E0286A40F001002862E068EE
:1027600041F2883B88B1FFF7A1FD064609E0286ADF
:1027700040F004002862EEE7FFF798FD811B594501
:102780005BD8286A8007F7D50BE0FFF78FFD064678
:1027900004E0FFF78BFD811B59454ED8286A80075E
:1027A000F7D41FB1E86920F08050E861E069A8B370
:1027B0006968C1F38101022946D00228484606D043
:1027C000C8F86000FFF772FD044639E035E047467F
:1027D000C8F86000FFF76AFD064604E0FFF766FDF3
:1027E000801B022829D828688001F7D4206AB0F518
:1027F000803F05D16868A16820F400300843686014
:10280000D4E908010843696821F474110843686039
:10281000C7F860A0FFF74AFD044605E023E0FFF794
:1028200045FD001B022808D828688001F7D51AE06A
:10283000FFF73CFD001B022802D90320BDE8F88FFA
:1028400028688001F4D40EE00128F7D06868226A75
:1028500000F48031914204D1616A00F47010884222
:1028600001D00120EAE70020E8E700000010024064
:102870000000424280044242A0000020007000405C
:1028800010B5401EB0F1807F01D3012010BD4FF084
:10289000E02460610F21601700F05CFB0020A06164
:1028A00007202061002010BD704770B5040004D0DF
:1028B00094F83900002510B106E0012070BD84F8BD
:1028C0003850204600F022F8242084F8390020688F
:1028D000C16821F40051C160204600F06DFA206803
:1028E000016921F4904101612068416921F02A01C8
:1028F00041612068C16841F40051C160E563202056
:1029000084F8390084F83A00002070BD7047000058
:1029100037B5044690F83A0082B0134620283AD1E1
:10292000039AAAB3A3B394F83800012833D0012046
:1029300084F83800A262A3850025E563222084F88C
:102940003A00616B15488862616B1548C862616B1B
:1029500014480863606B45632168606B091DFFF7CD
:102960006FFB206801684168009184F83850C168A5
:1029700041F48071C1602068416941F00101416109
:102980002068416941F040014161002005B030BD3F
:10299000FFE70120FAE70220F8E70000432D0008D6
:1029A0007F2D0008F92C0008704770472DE9F84387
:1029B000044690F839001E4617460D46202850D18F
:1029C000A5B19FB194F8380001284AD0012084F8BD
:1029D00038004FF00008C4F83C80212084F839000A
:1029E000FFF764FCA7848146E78426E00120BDE868
:1029F000F883E08C401EE084A0684B46B0F5805F11
:102A00004FF000024FF080012046009603D000F006
:102A10002FFAE8B90DE000F02BFAC8B92888216830
:102A2000C0F308004860206908B16D1C05E0AD1CCA
:102A300003E0216815F8010B4860E08C0028D8D12C
:102A40004B46002240212046009600F011FA08B1C2
:102A50000320CCE7202084F8390084F83880002057
:102A6000C5E70220C3E700000F4E104C4FF47A7503
:102A7000002220213046FFF713FC012220212046AE
:102A8000FFF70EFC284601F002FA01222021304611
:102A9000FFF706FC002220212046FFF701FC284614
:102AA00001F0F5F9E4E70000000C014000180140D6
:102AB0002DE9F04385B0002420480094019402944D
:102AC0000394816941F040018161816901F0400115
:102AD0000491816941F004018161816901F004017F
:102AE0000491816941F0080181618069DFF85080BB
:102AF00000F008000490002220214046FFF7D0FBA0
:102B0000DFF84090002220214846FFF7C9FB20262D
:102B10000127022569464046CDE90245CDE9006717
:102B2000FFF7C6FA69464846CDE90245CDE9006798
:102B3000FFF7BEFA05B0BDE8F083000000100240C8
:102B400000180140000C01402DE9F04186B04D48CD
:102B500000240294816941F480418161816901F41A
:102B600080410491816941F004018161816901F032
:102B700004010491416941F0010141614069424D04
:102B800000F0010004904FF40070009002200190CA
:102B90000320039069462846FFF78AFA2815CDE9F5
:102BA0000004694628460294FFF782FA384E3748F7
:102BB0004FF08008C6E90004C6E9024820203461CD
:102BC000C6E905403046F461FFF7FCF9A6F140057F
:102BD0002E486E6305F184071438756201C7102012
:102BE000A7E8110105F1840047F810497C61BC6138
:102BF000FC61FFF7E7F92F6326487D6228604FF4F8
:102C0000E130C5E901040C20EC60C5E90440AC6189
:102C10002846EC61FFF749FE3868016841F002017F
:102C200001602868C16841F01001C1603068016826
:102C300041F0020101603068016841F00401016067
:102C4000002211462520FFF76BFB002211460F20C2
:102C5000FFF766FB002211460E20FFF761FB2520DF
:102C600000F06BF90F2000F068F90E2000F065F914
:102C70004FF48072A5F580712846FFF749FE06B033
:102C8000BDE8F081001002400008014058000240F9
:102C9000E411002000380140FEE7704710B500F055
:102CA00029FD01F041FABDE8104000F031BD0000FF
:102CB0000D48016841F00101016041680B4A114073
:102CC000416001680A4A11400160016821F48021D5
:102CD0000160416821F4FE0141604FF41F018160F1
:102CE0000449C00308607047001002400000FFF86C
:102CF000FFFFF6FE08ED00E070B5446A2068406909
:102D000094F83910C0F3C0100025212904D118B15E
:102D1000E584204600F046F82068406994F83A10AF
:102D2000C0F38010222904D118B1E585204600F0B7
:102D30002BF8E06B40F01000E0632046FFF7B4FD95
:102D400070BD10B50146406A09680968890613D448
:102D50000021C1850168CA6822F48072CA600168D6
:102D60004A6922F001024A6101684A6922F0400280
:102D70004A61202180F83A10FFF716FE10BD10B509
:102D8000406AFFF712FE10BD0168CA6822F4907213
:102D9000CA6001684A6922F001024A61202180F874
:102DA0003A1070470168CA6822F0C002CA60202148
:102DB00080F83910704700002DE9F04104460068A2
:102DC0000169E26821F4405111430161A168206961
:102DD0000143606901432068C26841F20C639A4371
:102DE0000A43C26020684169A26921F4407111431D
:102DF00041611E49206864253226884202D1FFF7CE
:102E00006DFB01E0FFF75AFB00EBC00101EB001185
:102E100060686FF018078000B1FBF0F2B2FBF5F2CA
:102E2000B1FBF0F37A4303EB8202B1FBF0F306EB64
:102E30000212B2FBF5F2B3FBF5F302F0F00202EB83
:102E40000312B1FBF0F3B1FBF0F0B0FBF5F0784307
:102E500003EB800006EB0010B0FBF5F0216800F0FA
:102E60000F0010448860BDE8F08100000038014088
:102E70002DE9F0411E46174688460446069D1CE093
:102E8000681C1AD025B1FFF711FA801BA84214D98B
:102E90002068C16821F4D071C1602068416921F0C7
:102EA00001014161202084F8390084F83A000020B3
:102EB00084F838000320BDE8F0812068016838EA12
:102EC000010004D00020B842DAD00020F3E701204E
:102ED000F9E7000038B500F00DFC0C4C20680168E3
:102EE000C943C90604D401684068009001F094FB0E
:102EF00020680168C943490603D4C16821F0400134
:102F0000C160BDE8384000F003BC0000A4110020FF
:102F1000FEE7490050EAC12018BF04204A0D18BF3F
:102F200040F0010040F2FF72B2EB515F08BF40F089
:102F30000200012808BF05207047002809DB00F0C7
:102F40001F02012191404009800000F1E020C0F8FB
:102F5000001170470907090E002804DB00F1E0208A
:102F600080F80014704700F00F0000F1E02080F8B6
:102F7000141D7047002806D00E4910F0FF0F03D033
:102F8000C0B2085C401C704710F47F4F04D0C0F3FF
:102F90000720085C0930704710F47F0F04D0C0F39D
:102FA0000740085C1130704701EB10600078193061
:102FB00070470000BC46000830380A2801D20120C2
:102FC00070470020704700002DE9FC411946044677
:102FD000DDE90837DDE90A65143040600060C4E9C6
:102FE0000821C4E90A373A46232118461C3400F068
:102FF00093FCD4E903014218D4E90101104B121FDC
:1030000000F05AFB44F81A0B002004F801690D4A3D
:1030100004F8036BE4E8020544F8105901C404F80D
:103020003C0B01C444F874090090234601901946F2
:1030300004F1440001F010F90020BDE8FC8100001B
:10304000953E00089B40000810B5029C24F0010446
:103050004472C0E907120021C0E9093100EBC10246
:103060001432491C526012600129F7DB10BD70B5A3
:103070000546002405EBC400143000F0CBFB641CB3
:10308000012CF7DB70BD70B50446FDF7F5F8216F34
:10309000054609B1204688472846BDE87040FDF73F
:1030A000EFB810B5FFF704FDFFF74EFD002010BD8F
:1030B0000FB4202100B589B06846FDF7A8F90BAA26
:1030C00068460A99FDF772F96846FDF781F982B200
:1030D000052369460248FFF769FC09B05DF814FB57
:1030E000A41100201CB514210320CDE900014FF4E8
:1030F00000730022044905A000F0A5FE00F096FF31
:103100004FF0FF301CBD0000692A00086C65643177
:103110000000000010B500F0E9F8BDE81040FFF72E
:10312000E1BF000030B5134C41682268114402F140
:10313000080388420DD04D885DB96568A94208D062
:10314000A5688D4200D1A0604D6845604968851A28
:10315000CD508168114481420BD04D88002D08D19B
:10316000A568854200D1A16044684C604068891A16
:10317000C15030BD0C0000202DE9FF4F9B46DDE91A
:103180000DE50F9CA846630601D5454B01E0444B75
:10319000113B9946E30601D524F00104E30701D071
:1031A000302300E020239A460026A3070BD5002AEF
:1031B00002DA2D26524206E0630701D52B2602E0F3
:1031C000230700D52026002322B930228DF80020C5
:1031D00001230CE0BBF10A0F14D002F00F0C12090E
:1031E00019F80CC00DF803C05B1C002AF2D1AB42E9
:1031F00000DD1D46AEEB050214F0110F4FF0200C60
:1032000008D015E00A27B2FBF7FC07FB1C2CB2FB29
:10321000F7F2E5E746B1002A06DD521E04E08842D7
:1032200001D280F800C0401C171EA2F10102F6DC9A
:1032300026B1884200D20670401C521EE40605D515
:1032400008E0884201D280F800A0401C141EA2F1C0
:103250000102F6DC30242E466D1E9E420ADD8842B5
:1032600000D20470401CF6E7884201D2E55C05708C
:10327000401C00E06C461D1EA3F1010308DDB8F1FF
:10328000000FF1D104E0884201D280F800C0401C58
:10329000131EA2F10102F6DC04B0BDE8F08F0000BD
:1032A000CD4700081CB514210A20CDE900014FF4D8
:1032B00080730022034904A000F0C5FDBDE81C4056
:1032C00000F0B4BE153100086D61696E00000000A9
:1032D00070B5044C044D02E020688047241DAC42C8
:1032E000FAD370BDF8480008FC48000870B5044CDB
:1032F000044D02E020688047241DAC42FAD370BD23
:10330000FC4800080449000810B5FCF7B5FF044A62
:103310005188491C5180BDE81040FCF7B1BF000046
:103320006400002010B5FCF7A7FF0B4C6188491E14
:1033300009B2618000290ADC00216180FCF7A0FF4E
:103340006068002807D0BDE8104000F093BBBDE8DE
:103350001040FCF795BF10BD6400002070B5002838
:1033600033D01A4D296888422FD3696888422CD2FD
:10337000A0F10C044FF0FF31154800F02DFC6088DF
:103380004FF4F55610B12088B04208D011A000F0DB
:10339000F5F923886288214615A000F0EFF9002096
:1033A00060802680A868844200D2AC60296860688A
:1033B000611A401A2969081A28612046FFF7B2FEEF
:1033C000BDE87040024800F0E1BB70BD0C00002079
:1033D00064140020746F206672656520612062614C
:1033E00064206461746120626C6F636B3A0A000050
:1033F0006D656D3A203078253038782C20757365EE
:103400006420666C61673A2025642C206D616769D1
:103410006320636F64653A203078253034780A0081
:1034200000487047A400002000487047A410002006
:1034300030B58FB0FEF740FF01200090000400245B
:10344000CDE901040225CDE907504FF4E0100990C1
:103450006846FFF789F800B1FEE70F20CDE90A05BD
:103460004FF48060CDE90C4002210AA80E94FEF7CB
:1034700089FF00B1FEE710484FF47A710068B0FB95
:10348000F1F0401EB0F1807F08D24FF0E0210B4AEE
:103490004861FF20107007208C610861FFF718FF5A
:1034A000FFF7C2FF0446FFF7BBFF0FB02146BDE8A0
:1034B000304000F035BC0000A000002023ED00E00B
:1034C0007047000070B50546041D2B48016819B10E
:1034D0002846884700284DD028A0E16B00F04EF91F
:1034E0002AA0216A00F04AF92CA0616A00F046F98E
:1034F0002EA0A16A00F042F930A0E16A00F03EF986
:1035000032A0216800F03AF934A0616800F036F981
:1035100036A0A16800F032F938A0E16800F02EF979
:103520003AA0216900F02AF93CA0616900F026F96F
:103530003EA0A16900F022F940A0E16900F01EF967
:1035400042A0216B00F01AF944A0616B00F016F95B
:1035500046A0A16B00F012F92878400706D500F0CC
:103560003FFD014645A000F009F902E04BA000F044
:1035700005F9FEE770BD0000840000207073723A08
:10358000203078253038780A000000007230303A58
:10359000203078253038780A000000007230313A47
:1035A000203078253038780A000000007230323A36
:1035B000203078253038780A000000007230333A25
:1035C000203078253038780A000000007230343A14
:1035D000203078253038780A000000007230353A03
:1035E000203078253038780A000000007230363AF2
:1035F000203078253038780A000000007230373AE1
:10360000203078253038780A000000007230383ACF
:10361000203078253038780A000000007230393ABE
:10362000203078253038780A000000007231303AB6
:10363000203078253038780A000000007231313AA5
:10364000203078253038780A000000007231323A94
:10365000203078253038780A00000000206C723A5B
:10366000203078253038780A000000002070633A56
:10367000203078253038780A0000000068617264D4
:10368000206661756C74206F6E2074687265616469
:103690003A2025730D0A0D0A00000000686172646B
:1036A000206661756C74206F6E2068616E646C6555
:1036B000720D0A0D0A00000070B50546121D22F0B9
:1036C000070040380A4C0646002240F82240521CAF
:1036D000102AFAD3016200214162816200F13002B6
:1036E000C16282E82A004FF08071F16370BD000072
:1036F000EFBEADDE10B5FCF7BFFD044A1178491CE2
:103700001170BDE81040FCF7BBBD000008000020B0
:1037100010B5FCF7B1FD044A1178491E1170BDE8DF
:103720001040FCF7ADBD0000080000202DE9F0417D
:10373000054614460E46084600F08EFC06F11407B6
:10374000ACB1012C17D12C680DE096F8351094F827
:103750002120A4F11400914204D23946143000F023
:1037600032F802E02468AC42EFD1AC4203D13946D2
:10377000284600F028F80020BDE8F0810FB47F2132
:1037800010B503AB0448029A00F0DAFD0248FFF7D7
:1037900097FE10BC5DF814FBE41300200268516032
:1037A00002680A6001604860704702685160026800
:1037B0000A600160486070470268516002680A60F0
:1037C0000160486070474268116042684A60416029
:1037D000086070470168814201D1012070470020D4
:1037E00070470168814201D1012070470020704775
:1037F000D0E900124A60D0E9001211604060006018
:103800007047D0E900124A60D0E9001211604060B0
:1038100000607047D0E900124A60D0E900121160E0
:1038200040600060704700002DE9F047002807D095
:10383000374EC01C20F00305F068854202D90020F5
:10384000BDE8F0870C2D00D20C254FF0FF31314838
:1038500000F0C2F9D6F808C03168F768ACEB010097
:103860007A1B4FE00C186388E3BB63681B1A0C3BA0
:10387000AB4246D362684FF00109131A05F11802F2
:103880000C3B4FF4F55A93422DD343190C33CA180D
:103890004FF00008A2F800A0A2F80280D4F804803B
:1038A000C2E901806360A4F8029050680C37B84206
:1038B00002D001F108028350306928440C30306195
:1038C0007269824200D27061A4F800A0644512D1EE
:1038D000B06842887AB1726890420CD0406808445F
:1038E000B060F6E70DE0A4F802906068621A801AF2
:1038F00032691044E3E7074800F048F904F10C008E
:103900009EE760688242ADD8024800F03FF996E732
:103910000C0000206414002010B50346CCB2042A29
:1039200019D3810717D1194644EA042343EA034314
:1039300006E008C1103A08C141F8083B41F8043CD0
:10394000102AF6D201E008C1121F042AFBD20B464E
:1039500001E003F8014B521EFBD210BD2DE9F041EE
:103960000F46064600F044F80546C068FFF75CFFC6
:10397000041E17D00021EA68FFF7CEFF2672002050
:10398000607208223946204600F0B6F9FCF774FC54
:10399000064604F10C01281DFFF700FF3046FCF736
:1039A0006FFC2046BDE8F08170B50446002020720F
:1039B000FCF762FC054604F10C00FFF719FF2846EE
:1039C000FCF75EFC2046BDE87040FFF7C7BC70B551
:1039D000044600202072FCF74FFC054604F10C0061
:1039E000FFF706FF2846BDE87040FCF749BC000021
:1039F000074A002102EB01131B78834202D102EB3C
:103A000001107047491C0429F4DB002070470000B6
:103A1000240000202DE9F041054617460E460846D1
:103A2000FFF7E6FF0446FFF76FFC211D606800E02A
:103A300000688842FCD1FFF775FC46F080002872D0
:103A400008223946284600F057F9FCF715FC0646CF
:103A500005F10C01201DFFF7A1FE3046BDE8F04145
:103A6000FCF70EBC007A000601D50120704700204B
:103A70007047000070B5FCF7FFFB114C05466088ED
:103A8000B0B9A068FFF776FA0E49401E626851F897
:103A90003010143991420BD020700B4861600078CF
:103AA00001F11C01002802F11C0006D0FCF7EBFB21
:103AB0002846BDE87040FCF7E3BBFCF7E4FBF7E702
:103AC00064000020841400200800002010B5044683
:103AD000FCF7D2FB024694F834000E4920F00F00A8
:103AE000401C84F8340094F8350001EBC00104F167
:103AF00014004B6818604B68A36148600648616118
:103B0000A16B836819438160BDE810401046FCF743
:103B1000B7BB0000841400206400002070B5054687
:103B2000FCF7AAFB05F114040146D4E90002426047
:103B3000D4E900021060AC616C6195F83500084A68
:103B400002EBC0000268824204D10648AB6B826877
:103B50009A438260BDE870400846FCF791BB0000C4
:103B600084140020640000202DE9F04116460A4626
:103B70001F4605460221FFF74DFF05F11404AC6115
:103B80006C61AE836F720020BDE8F08170B50446B1
:103B90000025FCF771FB064604F11400FFF71AFE3E
:103BA00038B1A08B4FF6FF7188420FD2401CA08322
:103BB00004E06069143800F0F5F901253046FCF79F
:103BC0005FFB0DB1FFF756FF002070BD3046FCF7DC
:103BD00057FB6FF0020070BD73B50446FCF74CFB59
:103BE0000646A08B28B1401EA0833046FCF748FB58
:103BF00021E0019808B300F0F3F90546002028639E
:103C0000627A294604F11400FFF790FD019800281C
:103C100009DD05F1440001AA0021044600F0E4FAA0
:103C2000204600F02DFB3046FCF72AFBFFF722FF71
:103C3000286B002800D100207CBD3046FCF720FB1B
:103C40006FF001007CBD000008B509A0FFF796FDEC
:103C50000AA0FFF793FD12A0009005230122032183
:103C600012A0FFF78BFDBDE8084018A0FFF786BD46
:103C70000A205C207C202F0A000000002D205254D6
:103C8000202D2020202020546872656164204F7010
:103C900065726174696E672053797374656D0A008B
:103CA000417567203130203230323400202F207CA3
:103CB000205C202020202025642E25642E256420D1
:103CC0006275696C642025730A0000002032303070
:103CD00036202D203230323020436F707972696780
:103CE00068742062792072742D7468726561642032
:103CF0007465616D0A00000010B5002A07D0034604
:103D000011F8014B03F8014B2CB1521EF8D110BD34
:103D100003F8011B00E00021521EF9D110BD000084
:103D20000A46C11C10B522F0030321F00301182B31
:103D300021D9A3F118048C421DD35A1A114C183AF8
:103D40004FF4F553E26021600B8000200C32C1E992
:103D50000120488048680844606003800121418058
:103D6000426082600A46002307A10948FFF7FCFE73
:103D70002068A06010BD0146BDE8104005A0FFF717
:103D8000FDBC00000C0000206865617000000000B0
:103D9000641400206D656D20696E69742C20657255
:103DA000726F7220626567696E2061646472657308
:103DB0007320307825782C20616E6420656E642035
:103DC0006164647265737320307825780A0000009E
:103DD00010B50A4A00230A4C5380184604EBC00170
:103DE000401C496009602028F8DB1F201070034840
:103DF00053600C3093604060006010BD6400002090
:103E00008414002010B5074CA068FFF7B3F80649EA
:103E1000401E51F8300014386060BDE810401C307E
:103E2000FCF75FBA6400002084140020044A0020DC
:103E300002EBC001401C49600960F9D070470000E6
:103E40007C00002070472DE9FF478946DDE90C76AC
:103E5000824601461D4690460120FFF77FFD041E65
:103E60000DD02846FFF7E0FC60B103968DE8A10075
:103E700043464A4651462046FFF7A6F8204604B07E
:103E8000BDE8F0872046FFF78FFD0020F7E700F040
:103E9000ADB8000070B513480468FCF7EDF90546AD
:103EA0002046FFF7F0F82046FFF738FE042084F89C
:103EB000340004F1440000F0BBF92046FFF7D2FDC6
:103EC00001280BD004F114010748FFF76EFCFFF73F
:103ED000D1FD2846BDE87040FCF7D2B92046FFF777
:103EE00076FDF4E7680000207000002000F002F882
:103EF000FCE7000070B5FCF7BFF905460E48016805
:103F0000814214D00168A1F11404D1E90002426099
:103F1000D1E900021060496009604869FFF71EFAA4
:103F20002046FFF741FD2846FCF7AAF9E3E72846BB
:103F3000BDE87040FCF7A4B9700000201FB5202335
:103F400008481F22D9008DE80F000023064A07A168
:103F5000783800F00FF804B00248BDE81040783817
:103F600000F064B8E4120020ED3E00087469646C4F
:103F7000650000002DE9FF5F92460EAA0F4692E809
:103F800070010A46994683460121FFF743FD8DE8FB
:103F900070014B46524639465846FFF715F804B0B3
:103FA000BDE8F09F70B5044690F8340000F00F00B3
:103FB000022802D04FF0FF3070BDFCF75DF90546D6
:103FC00004F11400FFF71DFC04F1440000F0A0F917
:103FD0002846FCF755F92046FFF778FD002070BD14
:103FE000014800687047000068000020F1B5FCF748
:103FF00043F905460C480468204600F02DF804F10A
:1040000044006A460021064600F0EEF8304600F013
:1040100037F92846FCF734F9FFF72CFD206B801C9C
:1040200000D120630020F8BD6800002010B590F892
:104030003610012280F835108A400221826380F810
:104040003410FFF7AFFF0348006808B1FFF712FD17
:10405000002010BD6800002070B5044690F83400C0
:1040600000F00F00012802D04FF0FF3070BDFCF7C8
:1040700003F905462046FFF751FD94F8340020F07F
:104080000F00801C84F8340004F1440000F040F973
:104090002846FCF7F5F8002070BD10B504466FF017
:1040A0000100206304F11400FFF7ABFB2046FFF78B
:1040B0000DFDBDE81040FFF7DDBC000070B5FCF75A
:1040C000DBF806461348046894F8340000F00F004B
:1040D000012819D1D4E90501884215D004F1140052
:1040E0000546FFF78EFB94F835000B4901EBC00045
:1040F00041680D6041686960456028603046FCF7A2
:10410000BFF8FFF7B7FC02E03046FCF7B9F8002033
:1041100070BD000068000020841400200148006881
:104120007047000004000020094810B50168491CD0
:104130000160FFF755FF016C491E016403D1C16B9B
:104140000164FFF7BBFFBDE8104000F003B80000BA
:10415000040000202DE9FC41CDF804D0CDF800D0BA
:10416000FFF7DCFF0646FCF787F805462FE01D4801
:104170006FF0004104686069143C301A88422BD209
:104180002046FEF774FF607A810702D420F0010018
:10419000607204F114010F466846FFF70DFBD4E985
:1041A00007108847FFF7BAFF06466846FFF719FB76
:1041B00068B93846FFF72EFB607A810707D5C1073B
:1041C00005D020F001006072204600F059F8054843
:1041D000FFF707FB0028CAD02846FCF751F8BDE8D6
:1041E000FC8100007C00002070B515460E46044698
:1041F000FCF742F8052E17D2DFE806F00503080C9D
:104200001100616A0FE0296861620DE0617A21F0B6
:10421000020102E0617A41F00201617204E0617A18
:10422000C90700D001212960FCF72AF8002070BDE1
:1042300070B50446FCF720F805462046FEF717FF48
:10424000607A20F0010060722846FCF719F82046D9
:10425000FFF7BDFB002070BD2DE9F8439046DDE976
:1042600008450A461F4606460A21FFF7D3FB2346A8
:104270003A46414630460095FEF7E6FEBDE8F88333
:104280002DE9F8430446FBF7F7FF80462046FEF78A
:10429000EEFE607A20F001006072FFF73FFF616A76
:1042A0001A4F4318A36200226D4600970CE006687F
:1042B000A6EBC2014969994204D0C91A6FF0004CBB
:1042C000614508D345F8226007EBC20155F822008A
:1042D00049688842EBD11AB105EB82010830486089
:1042E000521CF1D00948001F0168491C016004F10B
:1042F00014010098FFF760FA607A40F001006072E4
:104300004046FBF7BDFF0020BDE8F8837C0000209D
:1043100070B50446407AC0070ED0FBF7ADFF0546E6
:104320002046FEF7A4FE607A20F001006072284665
:10433000FBF7A6FF002070BD4FF0FF3070BD0000FE
:104340002DE9FF4F83B08146044604981F4609EBD0
:1043500000084FF0FF3B4FF0200AA04503D2C9F1FF
:10436000FF30D8460490FAE0252803D044457CD29B
:1043700020707AE000250599491C059108782D28C0
:1043800011D02B2812D0202813D0232814D0302865
:1043900015D00A785E46303A0A2A13D205A800F0F2
:1043A0001CF9064618E045F01005E4E745F0040561
:1043B000E1E745F00805DEE745F02005DBE745F0DD
:1043C0000105D8E72A2807D1491C059140CF002EC6
:1043D00002DA764245F0100505985B4601782E29F1
:1043E00013D1401C05900178A1F130020A2A04D2B1
:1043F00005A800F0F2F8034604E02A2904D1401C85
:10440000059008CF002B00DA0023059A00201178D0
:10441000682901D06C2902D1521C084605921178F6
:104420004FF00A0C6F297FD00CDC63291FD004DC0D
:10443000252975D058290DD179E064297CD06929C6
:1044400008D179E0702960D073292AD0752975D0F8
:1044500078296ED0444501D2252020700598641C2F
:104460000178D1B3444500D22170641C74E0E806A1
:1044700008D45146761E002E04DD444500D221703A
:10448000641CF7E717F8040B444500D2207051462E
:1044900002E0444500D22170641C761E002EF8DC38
:1044A0005AE002CF01B93CA1002000E0401CB0421C
:1044B00002D00A5C002AF9D1002B02DD984200DD0F
:1044C0001846EA060AD452463346761E834205DD74
:1044D000444500D22270641CF6E74CE0002206E05E
:1044E000444501D20B782370491C521C641C824243
:1044F000F6DB52463146761E81422DDD444500D220
:104500002270641CF6E70FE00AE0701C02D1082656
:1045100045F001050096CDE9013504CF102316E0E2
:104520004445A2D2252023E74FF0080C06E045F0D1
:1045300040054FF0100C01E045F002056C2801D059
:1045400068281BD004CF0096CDE90135634641466B
:104550002046FEF711FE04460598401C059005987C
:10456000007800287FF400AF049880B10020444513
:104570000BD220700BE0401E0590EDE737F8040BDE
:1045800082B2A807DFD512B2DDE708F8010C07B048
:10459000A4EB0900BDE8F08F284E554C4C290000D3
:1045A00000207047002070470020704700207047AF
:1045B00010B5FBF761FEFEF73BFFFFF745FBFFF78A
:1045C00035FCFFF705FCFEF76DFEFFF73BFCFFF740
:1045D000B5FCFFF717FC002010BD10B50246002007
:1045E0006FF02F0407E04B1C1360097800EB80008C
:1045F00004EB4000084411680B78303B0A2BF2D3DF
:1046000010BD0000014601A0FEF752BD7265636552
:104610006976653A25730A0070B50D4800684068F0
:104620000C4DC0F5807084B229880B488C42084438
:104630000DD002D9A4EB010106E0C1F58071FFF7AE
:10464000E1FF1CB121460448FFF7DCFF2C8070BD60
:10465000E411002000000020A410002010B5002963
:104660000AD00878002807D005487844FCF716FFE0
:10467000002801D0002010BD0248784410BD000081
:10468000BE020000B602000010B500290AD008786A
:10469000002807D005487844FCF700FF002801D027
:1046A000002010BD0248784410BD0000AE0200009A
:1046B000A6020000FCF7FFBAFCF734BC00000100C2
:1046C00002000100030001000200010004000100DB
:1046D00002000100030001000200010005000100CA
:1046E00002000100030001000200010004000100BB
:1046F00002000100030001000200010006000100A9
:10470000020001000300010002000100040001009A
:104710000200010003000100020001000500010089
:10472000020001000300010002000100040001007A
:104730000200010003000100020001000700010067
:10474000020001000300010002000100040001005A
:104750000200010003000100020001000500010049
:10476000020001000300010002000100040001003A
:104770000200010003000100020001000600010028
:10478000020001000300010002000100040001001A
:104790000200010003000100020001000500010009
:1047A00002000100030001000200010004000100FA
:1047B0000200010003000100020001003031323329
:1047C00034353637383961626364656600303132BA
:1047D00033343536373839414243444546000000CA
:1047E00000000000000001020304060708090000A1
:1047F00000000102030400000000000000000000AF
:104800003031323334353637383941424344454606
:104810004030580030313233343536373839616200
:104820006364656640307800040000080000000002
:104830000000000200010000103031323334353600
:1048400037383961626364656678700030313233BD
:1048500034353637383941424344454658500000D4
:1048600002400000000000A0000000000540000021
:10487000000000C8000000000C4000000000409C48
:1048800000000000194000000020BCBE0000000035
:1048900034400000BFC91B8E00000004B54000007A
:1048A000504BCFD06607E2CF010000006C41000002
:1048B0003E8251AADFEEA73401000000D942000079
:1048C000DCB5A0E23A301F97FFFFFFFFB4450000C0
:1048D000FD25A0C8E9A3C14FFFFFFFFFFF3F000078
:1048E0000000008000000000FF3F0000000000808A
:1048F00000000000AD450008A5450008A1450008DE
:10490000A3300008A9450008544A00080000002010
:10491000A40000006C010008F84A0008A400002070
:10492000441B0000880100081C0000004300000038
:10493000F8FFFFFF0C0000000E0000000F00000059
:104940002E0000001001000043000000F8FFFFFFF0
:104950000040404040404040404041414141414092
:104960004040404040404040404040404040404047
:1049700040050202020202020202020202020202D6
:1049800002202020202020202020200202020202DB
:104990000202909090909090101010101010101033
:1049A000101010101010101010101010020202023F
:1049B0000202888888888888080808080808080883
:1049C000080808080808080808080808020202027F
:1049D0004000000000000000000000000000000097
:1049E00000000000000000000000000000000000C7
:1049F00000000000000000000000000000000000B7
:104A000000000000000000000000000000000000A6
:104A10000000000000000000000000000000000096
:104A20000000000000000000000000000000000086
:104A30000000000000000000000000000000000076
:104A40000000000000000000000000000000000066
:104A50000000000000000000000000000000000056
:104A60000000000000000000000000000000000046
:104A700000000000000000000100000028000020ED
:104A8000280000207800000002000000380000200C
:104A90003800002020000000050000004800002031
:104AA00048000020300000000A00000058000020EC
:104AB000580000202C000000000000000000000052
:104AC00000000000000000000000000000000000E6
:104AD00000000000000000000000000000000000D6
:104AE00000000000000000000100000010000000B5
:084AF000000000000024F400A6
:0400000508000131BD
:00000001FF
